{
	"data": {
		"bytecode": {
			"linkReferences": {},
			"object": "60806040525f80553480156011575f80fd5b506114318061001f5f395ff3fe608060405234801561000f575f80fd5b5060043610610060575f3560e01c806311a52746146100645780631a8cbcaa146100825780637e3d71c3146100b55780639207891d146100d1578063ac2f0074146100ef578063b384abef14610121575b5f80fd5b61006c61013d565b6040516100799190610890565b60405180910390f35b61009c600480360381019061009791906108e4565b610145565b6040516100ac9493929190610b78565b60405180910390f35b6100cf60048036038101906100ca9190610dde565b6103a7565b005b6100d9610542565b6040516100e69190610890565b60405180910390f35b610109600480360381019061010491906108e4565b610547565b60405161011893929190610e6e565b60405180910390f35b61013b60048036038101906101369190610eaa565b61061f565b005b5f8054905090565b60608060605f60015f8681526020019081526020015f2060030160149054906101000a900460ff166101ac576040517f08c379a00000000000000000000000000000000000000000000000000000000081526004016101a390610f32565b60405180910390fd5b5f60015f8781526020019081526020015f209050805f018160010182600201836003015f9054906101000a900473ffffffffffffffffffffffffffffffffffffffff168380546101fb90610f7d565b80601f016020809104026020016040519081016040528092919081815260200182805461022790610f7d565b80156102725780601f1061024957610100808354040283529160200191610272565b820191905f5260205f20905b81548152906001019060200180831161025557829003601f168201915b5050505050935082805480602002602001604051908101604052809291908181526020015f905b82821015610341578382905f5260205f200180546102b690610f7d565b80601f01602080910402602001604051908101604052809291908181526020018280546102e290610f7d565b801561032d5780601f106103045761010080835404028352916020019161032d565b820191905f5260205f20905b81548152906001019060200180831161031057829003601f168201915b505050505081526020019060010190610299565b5050505092508180548060200260200160405190810160405280929190818152602001828054801561039057602002820191905f5260205f20905b81548152602001906001019080831161037c575b505050505091509450945094509450509193509193565b60018151116103eb576040517f08c379a00000000000000000000000000000000000000000000000000000000081526004016103e290610ff7565b60405180910390fd5b5f60015f805481526020019081526020015f20905082815f01908161041091906111b2565b508181600101908051906020019061042992919061075b565b50815167ffffffffffffffff81111561044557610444610bd8565b5b6040519080825280602002602001820160405280156104735781602001602082028036833780820191505090505b5081600201908051906020019061048b9291906107b2565b5033816003015f6101000a81548173ffffffffffffffffffffffffffffffffffffffff021916908373ffffffffffffffffffffffffffffffffffffffff16021790555060018160030160146101000a81548160ff0219169083151502179055507fd2a8dbeae3cac9e94402cc3d7e3ee6cb0a2c32d2e426bf82f24b87ffd1089efd5f54843360405161051f93929190611281565b60405180910390a15f80815480929190610538906112ea565b9190505550505050565b5f5481565b6001602052805f5260405f205f91509050805f01805461056690610f7d565b80601f016020809104026020016040519081016040528092919081815260200182805461059290610f7d565b80156105dd5780601f106105b4576101008083540402835291602001916105dd565b820191905f5260205f20905b8154815290600101906020018083116105c057829003601f168201915b505050505090806003015f9054906101000a900473ffffffffffffffffffffffffffffffffffffffff16908060030160149054906101000a900460ff16905083565b60015f8381526020019081526020015f2060030160149054906101000a900460ff16610680576040517f08c379a000000000000000000000000000000000000000000000000000000000815260040161067790610f32565b60405180910390fd5b60015f8381526020019081526020015f206001018054905081106106d9576040517f08c379a00000000000000000000000000000000000000000000000000000000081526004016106d09061137b565b60405180910390fd5b60015f8381526020019081526020015f2060020181815481106106ff576106fe611399565b5b905f5260205f20015f815480929190610717906112ea565b91905055507fd91ecafccf238642dccd41161308b3eebe62a12bc5819daf5164780c221ec95b82823360405161074f939291906113c6565b60405180910390a15050565b828054828255905f5260205f209081019282156107a1579160200282015b828111156107a057825182908161079091906111b2565b5091602001919060010190610779565b5b5090506107ae91906107fd565b5090565b828054828255905f5260205f209081019282156107ec579160200282015b828111156107eb5782518255916020019190600101906107d0565b5b5090506107f99190610820565b5090565b5b8082111561081c575f8181610813919061083b565b506001016107fe565b5090565b5b80821115610837575f815f905550600101610821565b5090565b50805461084790610f7d565b5f825580601f106108585750610875565b601f0160209004905f5260205f20908101906108749190610820565b5b50565b5f819050919050565b61088a81610878565b82525050565b5f6020820190506108a35f830184610881565b92915050565b5f604051905090565b5f80fd5b5f80fd5b6108c381610878565b81146108cd575f80fd5b50565b5f813590506108de816108ba565b92915050565b5f602082840312156108f9576108f86108b2565b5b5f610906848285016108d0565b91505092915050565b5f81519050919050565b5f82825260208201905092915050565b8281835e5f83830152505050565b5f601f19601f8301169050919050565b5f6109518261090f565b61095b8185610919565b935061096b818560208601610929565b61097481610937565b840191505092915050565b5f81519050919050565b5f82825260208201905092915050565b5f819050602082019050919050565b5f82825260208201905092915050565b5f6109c28261090f565b6109cc81856109a8565b93506109dc818560208601610929565b6109e581610937565b840191505092915050565b5f6109fb83836109b8565b905092915050565b5f602082019050919050565b5f610a198261097f565b610a238185610989565b935083602082028501610a3585610999565b805f5b85811015610a705784840389528151610a5185826109f0565b9450610a5c83610a03565b925060208a01995050600181019050610a38565b50829750879550505050505092915050565b5f81519050919050565b5f82825260208201905092915050565b5f819050602082019050919050565b610ab481610878565b82525050565b5f610ac58383610aab565b60208301905092915050565b5f602082019050919050565b5f610ae782610a82565b610af18185610a8c565b9350610afc83610a9c565b805f5b83811015610b2c578151610b138882610aba565b9750610b1e83610ad1565b925050600181019050610aff565b5085935050505092915050565b5f73ffffffffffffffffffffffffffffffffffffffff82169050919050565b5f610b6282610b39565b9050919050565b610b7281610b58565b82525050565b5f6080820190508181035f830152610b908187610947565b90508181036020830152610ba48186610a0f565b90508181036040830152610bb88185610add565b9050610bc76060830184610b69565b95945050505050565b5f80fd5b5f80fd5b7f4e487b71000000000000000000000000000000000000000000000000000000005f52604160045260245ffd5b610c0e82610937565b810181811067ffffffffffffffff82111715610c2d57610c2c610bd8565b5b80604052505050565b5f610c3f6108a9565b9050610c4b8282610c05565b919050565b5f67ffffffffffffffff821115610c6a57610c69610bd8565b5b610c7382610937565b9050602081019050919050565b828183375f83830152505050565b5f610ca0610c9b84610c50565b610c36565b905082815260208101848484011115610cbc57610cbb610bd4565b5b610cc7848285610c80565b509392505050565b5f82601f830112610ce357610ce2610bd0565b5b8135610cf3848260208601610c8e565b91505092915050565b5f67ffffffffffffffff821115610d1657610d15610bd8565b5b602082029050602081019050919050565b5f80fd5b5f610d3d610d3884610cfc565b610c36565b90508083825260208201905060208402830185811115610d6057610d5f610d27565b5b835b81811015610da757803567ffffffffffffffff811115610d8557610d84610bd0565b5b808601610d928982610ccf565b85526020850194505050602081019050610d62565b5050509392505050565b5f82601f830112610dc557610dc4610bd0565b5b8135610dd5848260208601610d2b565b91505092915050565b5f8060408385031215610df457610df36108b2565b5b5f83013567ffffffffffffffff811115610e1157610e106108b6565b5b610e1d85828601610ccf565b925050602083013567ffffffffffffffff811115610e3e57610e3d6108b6565b5b610e4a85828601610db1565b9150509250929050565b5f8115159050919050565b610e6881610e54565b82525050565b5f6060820190508181035f830152610e868186610947565b9050610e956020830185610b69565b610ea26040830184610e5f565b949350505050565b5f8060408385031215610ec057610ebf6108b2565b5b5f610ecd858286016108d0565b9250506020610ede858286016108d0565b9150509250929050565b7f706f6c6c20646f6573206e6f74206578697374000000000000000000000000005f82015250565b5f610f1c601383610919565b9150610f2782610ee8565b602082019050919050565b5f6020820190508181035f830152610f4981610f10565b9050919050565b7f4e487b71000000000000000000000000000000000000000000000000000000005f52602260045260245ffd5b5f6002820490506001821680610f9457607f821691505b602082108103610fa757610fa6610f50565b5b50919050565b7f6d6f7265207468656e206f6e65206f7074696f6e2072657175697265640000005f82015250565b5f610fe1601d83610919565b9150610fec82610fad565b602082019050919050565b5f6020820190508181035f83015261100e81610fd5565b9050919050565b5f819050815f5260205f209050919050565b5f6020601f8301049050919050565b5f82821b905092915050565b5f600883026110717fffffffffffffffffffffffffffffffffffffffffffffffffffffffffffffffff82611036565b61107b8683611036565b95508019841693508086168417925050509392505050565b5f819050919050565b5f6110b66110b16110ac84610878565b611093565b610878565b9050919050565b5f819050919050565b6110cf8361109c565b6110e36110db826110bd565b848454611042565b825550505050565b5f90565b6110f76110eb565b6111028184846110c6565b505050565b5b818110156111255761111a5f826110ef565b600181019050611108565b5050565b601f82111561116a5761113b81611015565b61114484611027565b81016020851015611153578190505b61116761115f85611027565b830182611107565b50505b505050565b5f82821c905092915050565b5f61118a5f198460080261116f565b1980831691505092915050565b5f6111a2838361117b565b9150826002028217905092915050565b6111bb8261090f565b67ffffffffffffffff8111156111d4576111d3610bd8565b5b6111de8254610f7d565b6111e9828285611129565b5f60209050601f83116001811461121a575f8415611208578287015190505b6112128582611197565b865550611279565b601f19841661122886611015565b5f5b8281101561124f5784890151825560018201915060208501945060208101905061122a565b8683101561126c5784890151611268601f89168261117b565b8355505b6001600288020188555050505b505050505050565b5f6060820190506112945f830186610881565b81810360208301526112a68185610947565b90506112b56040830184610b69565b949350505050565b7f4e487b71000000000000000000000000000000000000000000000000000000005f52601160045260245ffd5b5f6112f482610878565b91507fffffffffffffffffffffffffffffffffffffffffffffffffffffffffffffffff8203611326576113256112bd565b5b600182019050919050565b7f696e76616964206f7074696f6e000000000000000000000000000000000000005f82015250565b5f611365600d83610919565b915061137082611331565b602082019050919050565b5f6020820190508181035f83015261139281611359565b9050919050565b7f4e487b71000000000000000000000000000000000000000000000000000000005f52603260045260245ffd5b5f6060820190506113d95f830186610881565b6113e66020830185610881565b6113f36040830184610b69565b94935050505056fea2646970667358221220884f9e950058221662d6c4098f029c74146f83956d0a7ac3a4d18beecb52c77d64736f6c634300081a0033",
			"opcodes": "PUSH1 0x80 PUSH1 0x40 MSTORE PUSH0 DUP1 SSTORE CALLVALUE DUP1 ISZERO PUSH1 0x11 JUMPI PUSH0 DUP1 REVERT JUMPDEST POP PUSH2 0x1431 DUP1 PUSH2 0x1F PUSH0 CODECOPY PUSH0 RETURN INVALID PUSH1 0x80 PUSH1 0x40 MSTORE CALLVALUE DUP1 ISZERO PUSH2 0xF JUMPI PUSH0 DUP1 REVERT JUMPDEST POP PUSH1 0x4 CALLDATASIZE LT PUSH2 0x60 JUMPI PUSH0 CALLDATALOAD PUSH1 0xE0 SHR DUP1 PUSH4 0x11A52746 EQ PUSH2 0x64 JUMPI DUP1 PUSH4 0x1A8CBCAA EQ PUSH2 0x82 JUMPI DUP1 PUSH4 0x7E3D71C3 EQ PUSH2 0xB5 JUMPI DUP1 PUSH4 0x9207891D EQ PUSH2 0xD1 JUMPI DUP1 PUSH4 0xAC2F0074 EQ PUSH2 0xEF JUMPI DUP1 PUSH4 0xB384ABEF EQ PUSH2 0x121 JUMPI JUMPDEST PUSH0 DUP1 REVERT JUMPDEST PUSH2 0x6C PUSH2 0x13D JUMP JUMPDEST PUSH1 0x40 MLOAD PUSH2 0x79 SWAP2 SWAP1 PUSH2 0x890 JUMP JUMPDEST PUSH1 0x40 MLOAD DUP1 SWAP2 SUB SWAP1 RETURN JUMPDEST PUSH2 0x9C PUSH1 0x4 DUP1 CALLDATASIZE SUB DUP2 ADD SWAP1 PUSH2 0x97 SWAP2 SWAP1 PUSH2 0x8E4 JUMP JUMPDEST PUSH2 0x145 JUMP JUMPDEST PUSH1 0x40 MLOAD PUSH2 0xAC SWAP5 SWAP4 SWAP3 SWAP2 SWAP1 PUSH2 0xB78 JUMP JUMPDEST PUSH1 0x40 MLOAD DUP1 SWAP2 SUB SWAP1 RETURN JUMPDEST PUSH2 0xCF PUSH1 0x4 DUP1 CALLDATASIZE SUB DUP2 ADD SWAP1 PUSH2 0xCA SWAP2 SWAP1 PUSH2 0xDDE JUMP JUMPDEST PUSH2 0x3A7 JUMP JUMPDEST STOP JUMPDEST PUSH2 0xD9 PUSH2 0x542 JUMP JUMPDEST PUSH1 0x40 MLOAD PUSH2 0xE6 SWAP2 SWAP1 PUSH2 0x890 JUMP JUMPDEST PUSH1 0x40 MLOAD DUP1 SWAP2 SUB SWAP1 RETURN JUMPDEST PUSH2 0x109 PUSH1 0x4 DUP1 CALLDATASIZE SUB DUP2 ADD SWAP1 PUSH2 0x104 SWAP2 SWAP1 PUSH2 0x8E4 JUMP JUMPDEST PUSH2 0x547 JUMP JUMPDEST PUSH1 0x40 MLOAD PUSH2 0x118 SWAP4 SWAP3 SWAP2 SWAP1 PUSH2 0xE6E JUMP JUMPDEST PUSH1 0x40 MLOAD DUP1 SWAP2 SUB SWAP1 RETURN JUMPDEST PUSH2 0x13B PUSH1 0x4 DUP1 CALLDATASIZE SUB DUP2 ADD SWAP1 PUSH2 0x136 SWAP2 SWAP1 PUSH2 0xEAA JUMP JUMPDEST PUSH2 0x61F JUMP JUMPDEST STOP JUMPDEST PUSH0 DUP1 SLOAD SWAP1 POP SWAP1 JUMP JUMPDEST PUSH1 0x60 DUP1 PUSH1 0x60 PUSH0 PUSH1 0x1 PUSH0 DUP7 DUP2 MSTORE PUSH1 0x20 ADD SWAP1 DUP2 MSTORE PUSH1 0x20 ADD PUSH0 KECCAK256 PUSH1 0x3 ADD PUSH1 0x14 SWAP1 SLOAD SWAP1 PUSH2 0x100 EXP SWAP1 DIV PUSH1 0xFF AND PUSH2 0x1AC JUMPI PUSH1 0x40 MLOAD PUSH32 0x8C379A000000000000000000000000000000000000000000000000000000000 DUP2 MSTORE PUSH1 0x4 ADD PUSH2 0x1A3 SWAP1 PUSH2 0xF32 JUMP JUMPDEST PUSH1 0x40 MLOAD DUP1 SWAP2 SUB SWAP1 REVERT JUMPDEST PUSH0 PUSH1 0x1 PUSH0 DUP8 DUP2 MSTORE PUSH1 0x20 ADD SWAP1 DUP2 MSTORE PUSH1 0x20 ADD PUSH0 KECCAK256 SWAP1 POP DUP1 PUSH0 ADD DUP2 PUSH1 0x1 ADD DUP3 PUSH1 0x2 ADD DUP4 PUSH1 0x3 ADD PUSH0 SWAP1 SLOAD SWAP1 PUSH2 0x100 EXP SWAP1 DIV PUSH20 0xFFFFFFFFFFFFFFFFFFFFFFFFFFFFFFFFFFFFFFFF AND DUP4 DUP1 SLOAD PUSH2 0x1FB SWAP1 PUSH2 0xF7D JUMP JUMPDEST DUP1 PUSH1 0x1F ADD PUSH1 0x20 DUP1 SWAP2 DIV MUL PUSH1 0x20 ADD PUSH1 0x40 MLOAD SWAP1 DUP2 ADD PUSH1 0x40 MSTORE DUP1 SWAP3 SWAP2 SWAP1 DUP2 DUP2 MSTORE PUSH1 0x20 ADD DUP3 DUP1 SLOAD PUSH2 0x227 SWAP1 PUSH2 0xF7D JUMP JUMPDEST DUP1 ISZERO PUSH2 0x272 JUMPI DUP1 PUSH1 0x1F LT PUSH2 0x249 JUMPI PUSH2 0x100 DUP1 DUP4 SLOAD DIV MUL DUP4 MSTORE SWAP2 PUSH1 0x20 ADD SWAP2 PUSH2 0x272 JUMP JUMPDEST DUP3 ADD SWAP2 SWAP1 PUSH0 MSTORE PUSH1 0x20 PUSH0 KECCAK256 SWAP1 JUMPDEST DUP2 SLOAD DUP2 MSTORE SWAP1 PUSH1 0x1 ADD SWAP1 PUSH1 0x20 ADD DUP1 DUP4 GT PUSH2 0x255 JUMPI DUP3 SWAP1 SUB PUSH1 0x1F AND DUP3 ADD SWAP2 JUMPDEST POP POP POP POP POP SWAP4 POP DUP3 DUP1 SLOAD DUP1 PUSH1 0x20 MUL PUSH1 0x20 ADD PUSH1 0x40 MLOAD SWAP1 DUP2 ADD PUSH1 0x40 MSTORE DUP1 SWAP3 SWAP2 SWAP1 DUP2 DUP2 MSTORE PUSH1 0x20 ADD PUSH0 SWAP1 JUMPDEST DUP3 DUP3 LT ISZERO PUSH2 0x341 JUMPI DUP4 DUP3 SWAP1 PUSH0 MSTORE PUSH1 0x20 PUSH0 KECCAK256 ADD DUP1 SLOAD PUSH2 0x2B6 SWAP1 PUSH2 0xF7D JUMP JUMPDEST DUP1 PUSH1 0x1F ADD PUSH1 0x20 DUP1 SWAP2 DIV MUL PUSH1 0x20 ADD PUSH1 0x40 MLOAD SWAP1 DUP2 ADD PUSH1 0x40 MSTORE DUP1 SWAP3 SWAP2 SWAP1 DUP2 DUP2 MSTORE PUSH1 0x20 ADD DUP3 DUP1 SLOAD PUSH2 0x2E2 SWAP1 PUSH2 0xF7D JUMP JUMPDEST DUP1 ISZERO PUSH2 0x32D JUMPI DUP1 PUSH1 0x1F LT PUSH2 0x304 JUMPI PUSH2 0x100 DUP1 DUP4 SLOAD DIV MUL DUP4 MSTORE SWAP2 PUSH1 0x20 ADD SWAP2 PUSH2 0x32D JUMP JUMPDEST DUP3 ADD SWAP2 SWAP1 PUSH0 MSTORE PUSH1 0x20 PUSH0 KECCAK256 SWAP1 JUMPDEST DUP2 SLOAD DUP2 MSTORE SWAP1 PUSH1 0x1 ADD SWAP1 PUSH1 0x20 ADD DUP1 DUP4 GT PUSH2 0x310 JUMPI DUP3 SWAP1 SUB PUSH1 0x1F AND DUP3 ADD SWAP2 JUMPDEST POP POP POP POP POP DUP2 MSTORE PUSH1 0x20 ADD SWAP1 PUSH1 0x1 ADD SWAP1 PUSH2 0x299 JUMP JUMPDEST POP POP POP POP SWAP3 POP DUP2 DUP1 SLOAD DUP1 PUSH1 0x20 MUL PUSH1 0x20 ADD PUSH1 0x40 MLOAD SWAP1 DUP2 ADD PUSH1 0x40 MSTORE DUP1 SWAP3 SWAP2 SWAP1 DUP2 DUP2 MSTORE PUSH1 0x20 ADD DUP3 DUP1 SLOAD DUP1 ISZERO PUSH2 0x390 JUMPI PUSH1 0x20 MUL DUP3 ADD SWAP2 SWAP1 PUSH0 MSTORE PUSH1 0x20 PUSH0 KECCAK256 SWAP1 JUMPDEST DUP2 SLOAD DUP2 MSTORE PUSH1 0x20 ADD SWAP1 PUSH1 0x1 ADD SWAP1 DUP1 DUP4 GT PUSH2 0x37C JUMPI JUMPDEST POP POP POP POP POP SWAP2 POP SWAP5 POP SWAP5 POP SWAP5 POP SWAP5 POP POP SWAP2 SWAP4 POP SWAP2 SWAP4 JUMP JUMPDEST PUSH1 0x1 DUP2 MLOAD GT PUSH2 0x3EB JUMPI PUSH1 0x40 MLOAD PUSH32 0x8C379A000000000000000000000000000000000000000000000000000000000 DUP2 MSTORE PUSH1 0x4 ADD PUSH2 0x3E2 SWAP1 PUSH2 0xFF7 JUMP JUMPDEST PUSH1 0x40 MLOAD DUP1 SWAP2 SUB SWAP1 REVERT JUMPDEST PUSH0 PUSH1 0x1 PUSH0 DUP1 SLOAD DUP2 MSTORE PUSH1 0x20 ADD SWAP1 DUP2 MSTORE PUSH1 0x20 ADD PUSH0 KECCAK256 SWAP1 POP DUP3 DUP2 PUSH0 ADD SWAP1 DUP2 PUSH2 0x410 SWAP2 SWAP1 PUSH2 0x11B2 JUMP JUMPDEST POP DUP2 DUP2 PUSH1 0x1 ADD SWAP1 DUP1 MLOAD SWAP1 PUSH1 0x20 ADD SWAP1 PUSH2 0x429 SWAP3 SWAP2 SWAP1 PUSH2 0x75B JUMP JUMPDEST POP DUP2 MLOAD PUSH8 0xFFFFFFFFFFFFFFFF DUP2 GT ISZERO PUSH2 0x445 JUMPI PUSH2 0x444 PUSH2 0xBD8 JUMP JUMPDEST JUMPDEST PUSH1 0x40 MLOAD SWAP1 DUP1 DUP3 MSTORE DUP1 PUSH1 0x20 MUL PUSH1 0x20 ADD DUP3 ADD PUSH1 0x40 MSTORE DUP1 ISZERO PUSH2 0x473 JUMPI DUP2 PUSH1 0x20 ADD PUSH1 0x20 DUP3 MUL DUP1 CALLDATASIZE DUP4 CALLDATACOPY DUP1 DUP3 ADD SWAP2 POP POP SWAP1 POP JUMPDEST POP DUP2 PUSH1 0x2 ADD SWAP1 DUP1 MLOAD SWAP1 PUSH1 0x20 ADD SWAP1 PUSH2 0x48B SWAP3 SWAP2 SWAP1 PUSH2 0x7B2 JUMP JUMPDEST POP CALLER DUP2 PUSH1 0x3 ADD PUSH0 PUSH2 0x100 EXP DUP2 SLOAD DUP2 PUSH20 0xFFFFFFFFFFFFFFFFFFFFFFFFFFFFFFFFFFFFFFFF MUL NOT AND SWAP1 DUP4 PUSH20 0xFFFFFFFFFFFFFFFFFFFFFFFFFFFFFFFFFFFFFFFF AND MUL OR SWAP1 SSTORE POP PUSH1 0x1 DUP2 PUSH1 0x3 ADD PUSH1 0x14 PUSH2 0x100 EXP DUP2 SLOAD DUP2 PUSH1 0xFF MUL NOT AND SWAP1 DUP4 ISZERO ISZERO MUL OR SWAP1 SSTORE POP PUSH32 0xD2A8DBEAE3CAC9E94402CC3D7E3EE6CB0A2C32D2E426BF82F24B87FFD1089EFD PUSH0 SLOAD DUP5 CALLER PUSH1 0x40 MLOAD PUSH2 0x51F SWAP4 SWAP3 SWAP2 SWAP1 PUSH2 0x1281 JUMP JUMPDEST PUSH1 0x40 MLOAD DUP1 SWAP2 SUB SWAP1 LOG1 PUSH0 DUP1 DUP2 SLOAD DUP1 SWAP3 SWAP2 SWAP1 PUSH2 0x538 SWAP1 PUSH2 0x12EA JUMP JUMPDEST SWAP2 SWAP1 POP SSTORE POP POP POP POP JUMP JUMPDEST PUSH0 SLOAD DUP2 JUMP JUMPDEST PUSH1 0x1 PUSH1 0x20 MSTORE DUP1 PUSH0 MSTORE PUSH1 0x40 PUSH0 KECCAK256 PUSH0 SWAP2 POP SWAP1 POP DUP1 PUSH0 ADD DUP1 SLOAD PUSH2 0x566 SWAP1 PUSH2 0xF7D JUMP JUMPDEST DUP1 PUSH1 0x1F ADD PUSH1 0x20 DUP1 SWAP2 DIV MUL PUSH1 0x20 ADD PUSH1 0x40 MLOAD SWAP1 DUP2 ADD PUSH1 0x40 MSTORE DUP1 SWAP3 SWAP2 SWAP1 DUP2 DUP2 MSTORE PUSH1 0x20 ADD DUP3 DUP1 SLOAD PUSH2 0x592 SWAP1 PUSH2 0xF7D JUMP JUMPDEST DUP1 ISZERO PUSH2 0x5DD JUMPI DUP1 PUSH1 0x1F LT PUSH2 0x5B4 JUMPI PUSH2 0x100 DUP1 DUP4 SLOAD DIV MUL DUP4 MSTORE SWAP2 PUSH1 0x20 ADD SWAP2 PUSH2 0x5DD JUMP JUMPDEST DUP3 ADD SWAP2 SWAP1 PUSH0 MSTORE PUSH1 0x20 PUSH0 KECCAK256 SWAP1 JUMPDEST DUP2 SLOAD DUP2 MSTORE SWAP1 PUSH1 0x1 ADD SWAP1 PUSH1 0x20 ADD DUP1 DUP4 GT PUSH2 0x5C0 JUMPI DUP3 SWAP1 SUB PUSH1 0x1F AND DUP3 ADD SWAP2 JUMPDEST POP POP POP POP POP SWAP1 DUP1 PUSH1 0x3 ADD PUSH0 SWAP1 SLOAD SWAP1 PUSH2 0x100 EXP SWAP1 DIV PUSH20 0xFFFFFFFFFFFFFFFFFFFFFFFFFFFFFFFFFFFFFFFF AND SWAP1 DUP1 PUSH1 0x3 ADD PUSH1 0x14 SWAP1 SLOAD SWAP1 PUSH2 0x100 EXP SWAP1 DIV PUSH1 0xFF AND SWAP1 POP DUP4 JUMP JUMPDEST PUSH1 0x1 PUSH0 DUP4 DUP2 MSTORE PUSH1 0x20 ADD SWAP1 DUP2 MSTORE PUSH1 0x20 ADD PUSH0 KECCAK256 PUSH1 0x3 ADD PUSH1 0x14 SWAP1 SLOAD SWAP1 PUSH2 0x100 EXP SWAP1 DIV PUSH1 0xFF AND PUSH2 0x680 JUMPI PUSH1 0x40 MLOAD PUSH32 0x8C379A000000000000000000000000000000000000000000000000000000000 DUP2 MSTORE PUSH1 0x4 ADD PUSH2 0x677 SWAP1 PUSH2 0xF32 JUMP JUMPDEST PUSH1 0x40 MLOAD DUP1 SWAP2 SUB SWAP1 REVERT JUMPDEST PUSH1 0x1 PUSH0 DUP4 DUP2 MSTORE PUSH1 0x20 ADD SWAP1 DUP2 MSTORE PUSH1 0x20 ADD PUSH0 KECCAK256 PUSH1 0x1 ADD DUP1 SLOAD SWAP1 POP DUP2 LT PUSH2 0x6D9 JUMPI PUSH1 0x40 MLOAD PUSH32 0x8C379A000000000000000000000000000000000000000000000000000000000 DUP2 MSTORE PUSH1 0x4 ADD PUSH2 0x6D0 SWAP1 PUSH2 0x137B JUMP JUMPDEST PUSH1 0x40 MLOAD DUP1 SWAP2 SUB SWAP1 REVERT JUMPDEST PUSH1 0x1 PUSH0 DUP4 DUP2 MSTORE PUSH1 0x20 ADD SWAP1 DUP2 MSTORE PUSH1 0x20 ADD PUSH0 KECCAK256 PUSH1 0x2 ADD DUP2 DUP2 SLOAD DUP2 LT PUSH2 0x6FF JUMPI PUSH2 0x6FE PUSH2 0x1399 JUMP JUMPDEST JUMPDEST SWAP1 PUSH0 MSTORE PUSH1 0x20 PUSH0 KECCAK256 ADD PUSH0 DUP2 SLOAD DUP1 SWAP3 SWAP2 SWAP1 PUSH2 0x717 SWAP1 PUSH2 0x12EA JUMP JUMPDEST SWAP2 SWAP1 POP SSTORE POP PUSH32 0xD91ECAFCCF238642DCCD41161308B3EEBE62A12BC5819DAF5164780C221EC95B DUP3 DUP3 CALLER PUSH1 0x40 MLOAD PUSH2 0x74F SWAP4 SWAP3 SWAP2 SWAP1 PUSH2 0x13C6 JUMP JUMPDEST PUSH1 0x40 MLOAD DUP1 SWAP2 SUB SWAP1 LOG1 POP POP JUMP JUMPDEST DUP3 DUP1 SLOAD DUP3 DUP3 SSTORE SWAP1 PUSH0 MSTORE PUSH1 0x20 PUSH0 KECCAK256 SWAP1 DUP2 ADD SWAP3 DUP3 ISZERO PUSH2 0x7A1 JUMPI SWAP2 PUSH1 0x20 MUL DUP3 ADD JUMPDEST DUP3 DUP2 GT ISZERO PUSH2 0x7A0 JUMPI DUP3 MLOAD DUP3 SWAP1 DUP2 PUSH2 0x790 SWAP2 SWAP1 PUSH2 0x11B2 JUMP JUMPDEST POP SWAP2 PUSH1 0x20 ADD SWAP2 SWAP1 PUSH1 0x1 ADD SWAP1 PUSH2 0x779 JUMP JUMPDEST JUMPDEST POP SWAP1 POP PUSH2 0x7AE SWAP2 SWAP1 PUSH2 0x7FD JUMP JUMPDEST POP SWAP1 JUMP JUMPDEST DUP3 DUP1 SLOAD DUP3 DUP3 SSTORE SWAP1 PUSH0 MSTORE PUSH1 0x20 PUSH0 KECCAK256 SWAP1 DUP2 ADD SWAP3 DUP3 ISZERO PUSH2 0x7EC JUMPI SWAP2 PUSH1 0x20 MUL DUP3 ADD JUMPDEST DUP3 DUP2 GT ISZERO PUSH2 0x7EB JUMPI DUP3 MLOAD DUP3 SSTORE SWAP2 PUSH1 0x20 ADD SWAP2 SWAP1 PUSH1 0x1 ADD SWAP1 PUSH2 0x7D0 JUMP JUMPDEST JUMPDEST POP SWAP1 POP PUSH2 0x7F9 SWAP2 SWAP1 PUSH2 0x820 JUMP JUMPDEST POP SWAP1 JUMP JUMPDEST JUMPDEST DUP1 DUP3 GT ISZERO PUSH2 0x81C JUMPI PUSH0 DUP2 DUP2 PUSH2 0x813 SWAP2 SWAP1 PUSH2 0x83B JUMP JUMPDEST POP PUSH1 0x1 ADD PUSH2 0x7FE JUMP JUMPDEST POP SWAP1 JUMP JUMPDEST JUMPDEST DUP1 DUP3 GT ISZERO PUSH2 0x837 JUMPI PUSH0 DUP2 PUSH0 SWAP1 SSTORE POP PUSH1 0x1 ADD PUSH2 0x821 JUMP JUMPDEST POP SWAP1 JUMP JUMPDEST POP DUP1 SLOAD PUSH2 0x847 SWAP1 PUSH2 0xF7D JUMP JUMPDEST PUSH0 DUP3 SSTORE DUP1 PUSH1 0x1F LT PUSH2 0x858 JUMPI POP PUSH2 0x875 JUMP JUMPDEST PUSH1 0x1F ADD PUSH1 0x20 SWAP1 DIV SWAP1 PUSH0 MSTORE PUSH1 0x20 PUSH0 KECCAK256 SWAP1 DUP2 ADD SWAP1 PUSH2 0x874 SWAP2 SWAP1 PUSH2 0x820 JUMP JUMPDEST JUMPDEST POP JUMP JUMPDEST PUSH0 DUP2 SWAP1 POP SWAP2 SWAP1 POP JUMP JUMPDEST PUSH2 0x88A DUP2 PUSH2 0x878 JUMP JUMPDEST DUP3 MSTORE POP POP JUMP JUMPDEST PUSH0 PUSH1 0x20 DUP3 ADD SWAP1 POP PUSH2 0x8A3 PUSH0 DUP4 ADD DUP5 PUSH2 0x881 JUMP JUMPDEST SWAP3 SWAP2 POP POP JUMP JUMPDEST PUSH0 PUSH1 0x40 MLOAD SWAP1 POP SWAP1 JUMP JUMPDEST PUSH0 DUP1 REVERT JUMPDEST PUSH0 DUP1 REVERT JUMPDEST PUSH2 0x8C3 DUP2 PUSH2 0x878 JUMP JUMPDEST DUP2 EQ PUSH2 0x8CD JUMPI PUSH0 DUP1 REVERT JUMPDEST POP JUMP JUMPDEST PUSH0 DUP2 CALLDATALOAD SWAP1 POP PUSH2 0x8DE DUP2 PUSH2 0x8BA JUMP JUMPDEST SWAP3 SWAP2 POP POP JUMP JUMPDEST PUSH0 PUSH1 0x20 DUP3 DUP5 SUB SLT ISZERO PUSH2 0x8F9 JUMPI PUSH2 0x8F8 PUSH2 0x8B2 JUMP JUMPDEST JUMPDEST PUSH0 PUSH2 0x906 DUP5 DUP3 DUP6 ADD PUSH2 0x8D0 JUMP JUMPDEST SWAP2 POP POP SWAP3 SWAP2 POP POP JUMP JUMPDEST PUSH0 DUP2 MLOAD SWAP1 POP SWAP2 SWAP1 POP JUMP JUMPDEST PUSH0 DUP3 DUP3 MSTORE PUSH1 0x20 DUP3 ADD SWAP1 POP SWAP3 SWAP2 POP POP JUMP JUMPDEST DUP3 DUP2 DUP4 MCOPY PUSH0 DUP4 DUP4 ADD MSTORE POP POP POP JUMP JUMPDEST PUSH0 PUSH1 0x1F NOT PUSH1 0x1F DUP4 ADD AND SWAP1 POP SWAP2 SWAP1 POP JUMP JUMPDEST PUSH0 PUSH2 0x951 DUP3 PUSH2 0x90F JUMP JUMPDEST PUSH2 0x95B DUP2 DUP6 PUSH2 0x919 JUMP JUMPDEST SWAP4 POP PUSH2 0x96B DUP2 DUP6 PUSH1 0x20 DUP7 ADD PUSH2 0x929 JUMP JUMPDEST PUSH2 0x974 DUP2 PUSH2 0x937 JUMP JUMPDEST DUP5 ADD SWAP2 POP POP SWAP3 SWAP2 POP POP JUMP JUMPDEST PUSH0 DUP2 MLOAD SWAP1 POP SWAP2 SWAP1 POP JUMP JUMPDEST PUSH0 DUP3 DUP3 MSTORE PUSH1 0x20 DUP3 ADD SWAP1 POP SWAP3 SWAP2 POP POP JUMP JUMPDEST PUSH0 DUP2 SWAP1 POP PUSH1 0x20 DUP3 ADD SWAP1 POP SWAP2 SWAP1 POP JUMP JUMPDEST PUSH0 DUP3 DUP3 MSTORE PUSH1 0x20 DUP3 ADD SWAP1 POP SWAP3 SWAP2 POP POP JUMP JUMPDEST PUSH0 PUSH2 0x9C2 DUP3 PUSH2 0x90F JUMP JUMPDEST PUSH2 0x9CC DUP2 DUP6 PUSH2 0x9A8 JUMP JUMPDEST SWAP4 POP PUSH2 0x9DC DUP2 DUP6 PUSH1 0x20 DUP7 ADD PUSH2 0x929 JUMP JUMPDEST PUSH2 0x9E5 DUP2 PUSH2 0x937 JUMP JUMPDEST DUP5 ADD SWAP2 POP POP SWAP3 SWAP2 POP POP JUMP JUMPDEST PUSH0 PUSH2 0x9FB DUP4 DUP4 PUSH2 0x9B8 JUMP JUMPDEST SWAP1 POP SWAP3 SWAP2 POP POP JUMP JUMPDEST PUSH0 PUSH1 0x20 DUP3 ADD SWAP1 POP SWAP2 SWAP1 POP JUMP JUMPDEST PUSH0 PUSH2 0xA19 DUP3 PUSH2 0x97F JUMP JUMPDEST PUSH2 0xA23 DUP2 DUP6 PUSH2 0x989 JUMP JUMPDEST SWAP4 POP DUP4 PUSH1 0x20 DUP3 MUL DUP6 ADD PUSH2 0xA35 DUP6 PUSH2 0x999 JUMP JUMPDEST DUP1 PUSH0 JUMPDEST DUP6 DUP2 LT ISZERO PUSH2 0xA70 JUMPI DUP5 DUP5 SUB DUP10 MSTORE DUP2 MLOAD PUSH2 0xA51 DUP6 DUP3 PUSH2 0x9F0 JUMP JUMPDEST SWAP5 POP PUSH2 0xA5C DUP4 PUSH2 0xA03 JUMP JUMPDEST SWAP3 POP PUSH1 0x20 DUP11 ADD SWAP10 POP POP PUSH1 0x1 DUP2 ADD SWAP1 POP PUSH2 0xA38 JUMP JUMPDEST POP DUP3 SWAP8 POP DUP8 SWAP6 POP POP POP POP POP POP SWAP3 SWAP2 POP POP JUMP JUMPDEST PUSH0 DUP2 MLOAD SWAP1 POP SWAP2 SWAP1 POP JUMP JUMPDEST PUSH0 DUP3 DUP3 MSTORE PUSH1 0x20 DUP3 ADD SWAP1 POP SWAP3 SWAP2 POP POP JUMP JUMPDEST PUSH0 DUP2 SWAP1 POP PUSH1 0x20 DUP3 ADD SWAP1 POP SWAP2 SWAP1 POP JUMP JUMPDEST PUSH2 0xAB4 DUP2 PUSH2 0x878 JUMP JUMPDEST DUP3 MSTORE POP POP JUMP JUMPDEST PUSH0 PUSH2 0xAC5 DUP4 DUP4 PUSH2 0xAAB JUMP JUMPDEST PUSH1 0x20 DUP4 ADD SWAP1 POP SWAP3 SWAP2 POP POP JUMP JUMPDEST PUSH0 PUSH1 0x20 DUP3 ADD SWAP1 POP SWAP2 SWAP1 POP JUMP JUMPDEST PUSH0 PUSH2 0xAE7 DUP3 PUSH2 0xA82 JUMP JUMPDEST PUSH2 0xAF1 DUP2 DUP6 PUSH2 0xA8C JUMP JUMPDEST SWAP4 POP PUSH2 0xAFC DUP4 PUSH2 0xA9C JUMP JUMPDEST DUP1 PUSH0 JUMPDEST DUP4 DUP2 LT ISZERO PUSH2 0xB2C JUMPI DUP2 MLOAD PUSH2 0xB13 DUP9 DUP3 PUSH2 0xABA JUMP JUMPDEST SWAP8 POP PUSH2 0xB1E DUP4 PUSH2 0xAD1 JUMP JUMPDEST SWAP3 POP POP PUSH1 0x1 DUP2 ADD SWAP1 POP PUSH2 0xAFF JUMP JUMPDEST POP DUP6 SWAP4 POP POP POP POP SWAP3 SWAP2 POP POP JUMP JUMPDEST PUSH0 PUSH20 0xFFFFFFFFFFFFFFFFFFFFFFFFFFFFFFFFFFFFFFFF DUP3 AND SWAP1 POP SWAP2 SWAP1 POP JUMP JUMPDEST PUSH0 PUSH2 0xB62 DUP3 PUSH2 0xB39 JUMP JUMPDEST SWAP1 POP SWAP2 SWAP1 POP JUMP JUMPDEST PUSH2 0xB72 DUP2 PUSH2 0xB58 JUMP JUMPDEST DUP3 MSTORE POP POP JUMP JUMPDEST PUSH0 PUSH1 0x80 DUP3 ADD SWAP1 POP DUP2 DUP2 SUB PUSH0 DUP4 ADD MSTORE PUSH2 0xB90 DUP2 DUP8 PUSH2 0x947 JUMP JUMPDEST SWAP1 POP DUP2 DUP2 SUB PUSH1 0x20 DUP4 ADD MSTORE PUSH2 0xBA4 DUP2 DUP7 PUSH2 0xA0F JUMP JUMPDEST SWAP1 POP DUP2 DUP2 SUB PUSH1 0x40 DUP4 ADD MSTORE PUSH2 0xBB8 DUP2 DUP6 PUSH2 0xADD JUMP JUMPDEST SWAP1 POP PUSH2 0xBC7 PUSH1 0x60 DUP4 ADD DUP5 PUSH2 0xB69 JUMP JUMPDEST SWAP6 SWAP5 POP POP POP POP POP JUMP JUMPDEST PUSH0 DUP1 REVERT JUMPDEST PUSH0 DUP1 REVERT JUMPDEST PUSH32 0x4E487B7100000000000000000000000000000000000000000000000000000000 PUSH0 MSTORE PUSH1 0x41 PUSH1 0x4 MSTORE PUSH1 0x24 PUSH0 REVERT JUMPDEST PUSH2 0xC0E DUP3 PUSH2 0x937 JUMP JUMPDEST DUP2 ADD DUP2 DUP2 LT PUSH8 0xFFFFFFFFFFFFFFFF DUP3 GT OR ISZERO PUSH2 0xC2D JUMPI PUSH2 0xC2C PUSH2 0xBD8 JUMP JUMPDEST JUMPDEST DUP1 PUSH1 0x40 MSTORE POP POP POP JUMP JUMPDEST PUSH0 PUSH2 0xC3F PUSH2 0x8A9 JUMP JUMPDEST SWAP1 POP PUSH2 0xC4B DUP3 DUP3 PUSH2 0xC05 JUMP JUMPDEST SWAP2 SWAP1 POP JUMP JUMPDEST PUSH0 PUSH8 0xFFFFFFFFFFFFFFFF DUP3 GT ISZERO PUSH2 0xC6A JUMPI PUSH2 0xC69 PUSH2 0xBD8 JUMP JUMPDEST JUMPDEST PUSH2 0xC73 DUP3 PUSH2 0x937 JUMP JUMPDEST SWAP1 POP PUSH1 0x20 DUP2 ADD SWAP1 POP SWAP2 SWAP1 POP JUMP JUMPDEST DUP3 DUP2 DUP4 CALLDATACOPY PUSH0 DUP4 DUP4 ADD MSTORE POP POP POP JUMP JUMPDEST PUSH0 PUSH2 0xCA0 PUSH2 0xC9B DUP5 PUSH2 0xC50 JUMP JUMPDEST PUSH2 0xC36 JUMP JUMPDEST SWAP1 POP DUP3 DUP2 MSTORE PUSH1 0x20 DUP2 ADD DUP5 DUP5 DUP5 ADD GT ISZERO PUSH2 0xCBC JUMPI PUSH2 0xCBB PUSH2 0xBD4 JUMP JUMPDEST JUMPDEST PUSH2 0xCC7 DUP5 DUP3 DUP6 PUSH2 0xC80 JUMP JUMPDEST POP SWAP4 SWAP3 POP POP POP JUMP JUMPDEST PUSH0 DUP3 PUSH1 0x1F DUP4 ADD SLT PUSH2 0xCE3 JUMPI PUSH2 0xCE2 PUSH2 0xBD0 JUMP JUMPDEST JUMPDEST DUP2 CALLDATALOAD PUSH2 0xCF3 DUP5 DUP3 PUSH1 0x20 DUP7 ADD PUSH2 0xC8E JUMP JUMPDEST SWAP2 POP POP SWAP3 SWAP2 POP POP JUMP JUMPDEST PUSH0 PUSH8 0xFFFFFFFFFFFFFFFF DUP3 GT ISZERO PUSH2 0xD16 JUMPI PUSH2 0xD15 PUSH2 0xBD8 JUMP JUMPDEST JUMPDEST PUSH1 0x20 DUP3 MUL SWAP1 POP PUSH1 0x20 DUP2 ADD SWAP1 POP SWAP2 SWAP1 POP JUMP JUMPDEST PUSH0 DUP1 REVERT JUMPDEST PUSH0 PUSH2 0xD3D PUSH2 0xD38 DUP5 PUSH2 0xCFC JUMP JUMPDEST PUSH2 0xC36 JUMP JUMPDEST SWAP1 POP DUP1 DUP4 DUP3 MSTORE PUSH1 0x20 DUP3 ADD SWAP1 POP PUSH1 0x20 DUP5 MUL DUP4 ADD DUP6 DUP2 GT ISZERO PUSH2 0xD60 JUMPI PUSH2 0xD5F PUSH2 0xD27 JUMP JUMPDEST JUMPDEST DUP4 JUMPDEST DUP2 DUP2 LT ISZERO PUSH2 0xDA7 JUMPI DUP1 CALLDATALOAD PUSH8 0xFFFFFFFFFFFFFFFF DUP2 GT ISZERO PUSH2 0xD85 JUMPI PUSH2 0xD84 PUSH2 0xBD0 JUMP JUMPDEST JUMPDEST DUP1 DUP7 ADD PUSH2 0xD92 DUP10 DUP3 PUSH2 0xCCF JUMP JUMPDEST DUP6 MSTORE PUSH1 0x20 DUP6 ADD SWAP5 POP POP POP PUSH1 0x20 DUP2 ADD SWAP1 POP PUSH2 0xD62 JUMP JUMPDEST POP POP POP SWAP4 SWAP3 POP POP POP JUMP JUMPDEST PUSH0 DUP3 PUSH1 0x1F DUP4 ADD SLT PUSH2 0xDC5 JUMPI PUSH2 0xDC4 PUSH2 0xBD0 JUMP JUMPDEST JUMPDEST DUP2 CALLDATALOAD PUSH2 0xDD5 DUP5 DUP3 PUSH1 0x20 DUP7 ADD PUSH2 0xD2B JUMP JUMPDEST SWAP2 POP POP SWAP3 SWAP2 POP POP JUMP JUMPDEST PUSH0 DUP1 PUSH1 0x40 DUP4 DUP6 SUB SLT ISZERO PUSH2 0xDF4 JUMPI PUSH2 0xDF3 PUSH2 0x8B2 JUMP JUMPDEST JUMPDEST PUSH0 DUP4 ADD CALLDATALOAD PUSH8 0xFFFFFFFFFFFFFFFF DUP2 GT ISZERO PUSH2 0xE11 JUMPI PUSH2 0xE10 PUSH2 0x8B6 JUMP JUMPDEST JUMPDEST PUSH2 0xE1D DUP6 DUP3 DUP7 ADD PUSH2 0xCCF JUMP JUMPDEST SWAP3 POP POP PUSH1 0x20 DUP4 ADD CALLDATALOAD PUSH8 0xFFFFFFFFFFFFFFFF DUP2 GT ISZERO PUSH2 0xE3E JUMPI PUSH2 0xE3D PUSH2 0x8B6 JUMP JUMPDEST JUMPDEST PUSH2 0xE4A DUP6 DUP3 DUP7 ADD PUSH2 0xDB1 JUMP JUMPDEST SWAP2 POP POP SWAP3 POP SWAP3 SWAP1 POP JUMP JUMPDEST PUSH0 DUP2 ISZERO ISZERO SWAP1 POP SWAP2 SWAP1 POP JUMP JUMPDEST PUSH2 0xE68 DUP2 PUSH2 0xE54 JUMP JUMPDEST DUP3 MSTORE POP POP JUMP JUMPDEST PUSH0 PUSH1 0x60 DUP3 ADD SWAP1 POP DUP2 DUP2 SUB PUSH0 DUP4 ADD MSTORE PUSH2 0xE86 DUP2 DUP7 PUSH2 0x947 JUMP JUMPDEST SWAP1 POP PUSH2 0xE95 PUSH1 0x20 DUP4 ADD DUP6 PUSH2 0xB69 JUMP JUMPDEST PUSH2 0xEA2 PUSH1 0x40 DUP4 ADD DUP5 PUSH2 0xE5F JUMP JUMPDEST SWAP5 SWAP4 POP POP POP POP JUMP JUMPDEST PUSH0 DUP1 PUSH1 0x40 DUP4 DUP6 SUB SLT ISZERO PUSH2 0xEC0 JUMPI PUSH2 0xEBF PUSH2 0x8B2 JUMP JUMPDEST JUMPDEST PUSH0 PUSH2 0xECD DUP6 DUP3 DUP7 ADD PUSH2 0x8D0 JUMP JUMPDEST SWAP3 POP POP PUSH1 0x20 PUSH2 0xEDE DUP6 DUP3 DUP7 ADD PUSH2 0x8D0 JUMP JUMPDEST SWAP2 POP POP SWAP3 POP SWAP3 SWAP1 POP JUMP JUMPDEST PUSH32 0x706F6C6C20646F6573206E6F7420657869737400000000000000000000000000 PUSH0 DUP3 ADD MSTORE POP JUMP JUMPDEST PUSH0 PUSH2 0xF1C PUSH1 0x13 DUP4 PUSH2 0x919 JUMP JUMPDEST SWAP2 POP PUSH2 0xF27 DUP3 PUSH2 0xEE8 JUMP JUMPDEST PUSH1 0x20 DUP3 ADD SWAP1 POP SWAP2 SWAP1 POP JUMP JUMPDEST PUSH0 PUSH1 0x20 DUP3 ADD SWAP1 POP DUP2 DUP2 SUB PUSH0 DUP4 ADD MSTORE PUSH2 0xF49 DUP2 PUSH2 0xF10 JUMP JUMPDEST SWAP1 POP SWAP2 SWAP1 POP JUMP JUMPDEST PUSH32 0x4E487B7100000000000000000000000000000000000000000000000000000000 PUSH0 MSTORE PUSH1 0x22 PUSH1 0x4 MSTORE PUSH1 0x24 PUSH0 REVERT JUMPDEST PUSH0 PUSH1 0x2 DUP3 DIV SWAP1 POP PUSH1 0x1 DUP3 AND DUP1 PUSH2 0xF94 JUMPI PUSH1 0x7F DUP3 AND SWAP2 POP JUMPDEST PUSH1 0x20 DUP3 LT DUP2 SUB PUSH2 0xFA7 JUMPI PUSH2 0xFA6 PUSH2 0xF50 JUMP JUMPDEST JUMPDEST POP SWAP2 SWAP1 POP JUMP JUMPDEST PUSH32 0x6D6F7265207468656E206F6E65206F7074696F6E207265717569726564000000 PUSH0 DUP3 ADD MSTORE POP JUMP JUMPDEST PUSH0 PUSH2 0xFE1 PUSH1 0x1D DUP4 PUSH2 0x919 JUMP JUMPDEST SWAP2 POP PUSH2 0xFEC DUP3 PUSH2 0xFAD JUMP JUMPDEST PUSH1 0x20 DUP3 ADD SWAP1 POP SWAP2 SWAP1 POP JUMP JUMPDEST PUSH0 PUSH1 0x20 DUP3 ADD SWAP1 POP DUP2 DUP2 SUB PUSH0 DUP4 ADD MSTORE PUSH2 0x100E DUP2 PUSH2 0xFD5 JUMP JUMPDEST SWAP1 POP SWAP2 SWAP1 POP JUMP JUMPDEST PUSH0 DUP2 SWAP1 POP DUP2 PUSH0 MSTORE PUSH1 0x20 PUSH0 KECCAK256 SWAP1 POP SWAP2 SWAP1 POP JUMP JUMPDEST PUSH0 PUSH1 0x20 PUSH1 0x1F DUP4 ADD DIV SWAP1 POP SWAP2 SWAP1 POP JUMP JUMPDEST PUSH0 DUP3 DUP3 SHL SWAP1 POP SWAP3 SWAP2 POP POP JUMP JUMPDEST PUSH0 PUSH1 0x8 DUP4 MUL PUSH2 0x1071 PUSH32 0xFFFFFFFFFFFFFFFFFFFFFFFFFFFFFFFFFFFFFFFFFFFFFFFFFFFFFFFFFFFFFFFF DUP3 PUSH2 0x1036 JUMP JUMPDEST PUSH2 0x107B DUP7 DUP4 PUSH2 0x1036 JUMP JUMPDEST SWAP6 POP DUP1 NOT DUP5 AND SWAP4 POP DUP1 DUP7 AND DUP5 OR SWAP3 POP POP POP SWAP4 SWAP3 POP POP POP JUMP JUMPDEST PUSH0 DUP2 SWAP1 POP SWAP2 SWAP1 POP JUMP JUMPDEST PUSH0 PUSH2 0x10B6 PUSH2 0x10B1 PUSH2 0x10AC DUP5 PUSH2 0x878 JUMP JUMPDEST PUSH2 0x1093 JUMP JUMPDEST PUSH2 0x878 JUMP JUMPDEST SWAP1 POP SWAP2 SWAP1 POP JUMP JUMPDEST PUSH0 DUP2 SWAP1 POP SWAP2 SWAP1 POP JUMP JUMPDEST PUSH2 0x10CF DUP4 PUSH2 0x109C JUMP JUMPDEST PUSH2 0x10E3 PUSH2 0x10DB DUP3 PUSH2 0x10BD JUMP JUMPDEST DUP5 DUP5 SLOAD PUSH2 0x1042 JUMP JUMPDEST DUP3 SSTORE POP POP POP POP JUMP JUMPDEST PUSH0 SWAP1 JUMP JUMPDEST PUSH2 0x10F7 PUSH2 0x10EB JUMP JUMPDEST PUSH2 0x1102 DUP2 DUP5 DUP5 PUSH2 0x10C6 JUMP JUMPDEST POP POP POP JUMP JUMPDEST JUMPDEST DUP2 DUP2 LT ISZERO PUSH2 0x1125 JUMPI PUSH2 0x111A PUSH0 DUP3 PUSH2 0x10EF JUMP JUMPDEST PUSH1 0x1 DUP2 ADD SWAP1 POP PUSH2 0x1108 JUMP JUMPDEST POP POP JUMP JUMPDEST PUSH1 0x1F DUP3 GT ISZERO PUSH2 0x116A JUMPI PUSH2 0x113B DUP2 PUSH2 0x1015 JUMP JUMPDEST PUSH2 0x1144 DUP5 PUSH2 0x1027 JUMP JUMPDEST DUP2 ADD PUSH1 0x20 DUP6 LT ISZERO PUSH2 0x1153 JUMPI DUP2 SWAP1 POP JUMPDEST PUSH2 0x1167 PUSH2 0x115F DUP6 PUSH2 0x1027 JUMP JUMPDEST DUP4 ADD DUP3 PUSH2 0x1107 JUMP JUMPDEST POP POP JUMPDEST POP POP POP JUMP JUMPDEST PUSH0 DUP3 DUP3 SHR SWAP1 POP SWAP3 SWAP2 POP POP JUMP JUMPDEST PUSH0 PUSH2 0x118A PUSH0 NOT DUP5 PUSH1 0x8 MUL PUSH2 0x116F JUMP JUMPDEST NOT DUP1 DUP4 AND SWAP2 POP POP SWAP3 SWAP2 POP POP JUMP JUMPDEST PUSH0 PUSH2 0x11A2 DUP4 DUP4 PUSH2 0x117B JUMP JUMPDEST SWAP2 POP DUP3 PUSH1 0x2 MUL DUP3 OR SWAP1 POP SWAP3 SWAP2 POP POP JUMP JUMPDEST PUSH2 0x11BB DUP3 PUSH2 0x90F JUMP JUMPDEST PUSH8 0xFFFFFFFFFFFFFFFF DUP2 GT ISZERO PUSH2 0x11D4 JUMPI PUSH2 0x11D3 PUSH2 0xBD8 JUMP JUMPDEST JUMPDEST PUSH2 0x11DE DUP3 SLOAD PUSH2 0xF7D JUMP JUMPDEST PUSH2 0x11E9 DUP3 DUP3 DUP6 PUSH2 0x1129 JUMP JUMPDEST PUSH0 PUSH1 0x20 SWAP1 POP PUSH1 0x1F DUP4 GT PUSH1 0x1 DUP2 EQ PUSH2 0x121A JUMPI PUSH0 DUP5 ISZERO PUSH2 0x1208 JUMPI DUP3 DUP8 ADD MLOAD SWAP1 POP JUMPDEST PUSH2 0x1212 DUP6 DUP3 PUSH2 0x1197 JUMP JUMPDEST DUP7 SSTORE POP PUSH2 0x1279 JUMP JUMPDEST PUSH1 0x1F NOT DUP5 AND PUSH2 0x1228 DUP7 PUSH2 0x1015 JUMP JUMPDEST PUSH0 JUMPDEST DUP3 DUP2 LT ISZERO PUSH2 0x124F JUMPI DUP5 DUP10 ADD MLOAD DUP3 SSTORE PUSH1 0x1 DUP3 ADD SWAP2 POP PUSH1 0x20 DUP6 ADD SWAP5 POP PUSH1 0x20 DUP2 ADD SWAP1 POP PUSH2 0x122A JUMP JUMPDEST DUP7 DUP4 LT ISZERO PUSH2 0x126C JUMPI DUP5 DUP10 ADD MLOAD PUSH2 0x1268 PUSH1 0x1F DUP10 AND DUP3 PUSH2 0x117B JUMP JUMPDEST DUP4 SSTORE POP JUMPDEST PUSH1 0x1 PUSH1 0x2 DUP9 MUL ADD DUP9 SSTORE POP POP POP JUMPDEST POP POP POP POP POP POP JUMP JUMPDEST PUSH0 PUSH1 0x60 DUP3 ADD SWAP1 POP PUSH2 0x1294 PUSH0 DUP4 ADD DUP7 PUSH2 0x881 JUMP JUMPDEST DUP2 DUP2 SUB PUSH1 0x20 DUP4 ADD MSTORE PUSH2 0x12A6 DUP2 DUP6 PUSH2 0x947 JUMP JUMPDEST SWAP1 POP PUSH2 0x12B5 PUSH1 0x40 DUP4 ADD DUP5 PUSH2 0xB69 JUMP JUMPDEST SWAP5 SWAP4 POP POP POP POP JUMP JUMPDEST PUSH32 0x4E487B7100000000000000000000000000000000000000000000000000000000 PUSH0 MSTORE PUSH1 0x11 PUSH1 0x4 MSTORE PUSH1 0x24 PUSH0 REVERT JUMPDEST PUSH0 PUSH2 0x12F4 DUP3 PUSH2 0x878 JUMP JUMPDEST SWAP2 POP PUSH32 0xFFFFFFFFFFFFFFFFFFFFFFFFFFFFFFFFFFFFFFFFFFFFFFFFFFFFFFFFFFFFFFFF DUP3 SUB PUSH2 0x1326 JUMPI PUSH2 0x1325 PUSH2 0x12BD JUMP JUMPDEST JUMPDEST PUSH1 0x1 DUP3 ADD SWAP1 POP SWAP2 SWAP1 POP JUMP JUMPDEST PUSH32 0x696E76616964206F7074696F6E00000000000000000000000000000000000000 PUSH0 DUP3 ADD MSTORE POP JUMP JUMPDEST PUSH0 PUSH2 0x1365 PUSH1 0xD DUP4 PUSH2 0x919 JUMP JUMPDEST SWAP2 POP PUSH2 0x1370 DUP3 PUSH2 0x1331 JUMP JUMPDEST PUSH1 0x20 DUP3 ADD SWAP1 POP SWAP2 SWAP1 POP JUMP JUMPDEST PUSH0 PUSH1 0x20 DUP3 ADD SWAP1 POP DUP2 DUP2 SUB PUSH0 DUP4 ADD MSTORE PUSH2 0x1392 DUP2 PUSH2 0x1359 JUMP JUMPDEST SWAP1 POP SWAP2 SWAP1 POP JUMP JUMPDEST PUSH32 0x4E487B7100000000000000000000000000000000000000000000000000000000 PUSH0 MSTORE PUSH1 0x32 PUSH1 0x4 MSTORE PUSH1 0x24 PUSH0 REVERT JUMPDEST PUSH0 PUSH1 0x60 DUP3 ADD SWAP1 POP PUSH2 0x13D9 PUSH0 DUP4 ADD DUP7 PUSH2 0x881 JUMP JUMPDEST PUSH2 0x13E6 PUSH1 0x20 DUP4 ADD DUP6 PUSH2 0x881 JUMP JUMPDEST PUSH2 0x13F3 PUSH1 0x40 DUP4 ADD DUP5 PUSH2 0xB69 JUMP JUMPDEST SWAP5 SWAP4 POP POP POP POP JUMP INVALID LOG2 PUSH5 0x6970667358 0x22 SLT KECCAK256 DUP9 0x4F SWAP15 SWAP6 STOP PC 0x22 AND PUSH3 0xD6C409 DUP16 MUL SWAP13 PUSH21 0x146F83956D0A7AC3A4D18BEECB52C77D64736F6C63 NUMBER STOP ADDMOD BYTE STOP CALLER "
		},
		"gasEstimates": {
			"creation": {
				"codeDepositCost": "1033800",
				"executionCost": "6077",
				"totalCost": "1039877"
			},
			"external": {
				"createPoll(string,string[])": "infinite",
				"getPoll(uint256)": "infinite",
				"getPollCount()": "2410",
				"pollCount()": "2468",
				"polls(uint256)": "infinite",
				"vote(uint256,uint256)": "infinite"
			}
		},
		"methodIdentifiers": {
			"createPoll(string,string[])": "7e3d71c3",
			"getPoll(uint256)": "1a8cbcaa",
			"getPollCount()": "11a52746",
			"pollCount()": "9207891d",
			"polls(uint256)": "ac2f0074",
			"vote(uint256,uint256)": "b384abef"
		}
	},
	"abi": [
		{
			"anonymous": false,
			"inputs": [
				{
					"indexed": false,
					"internalType": "uint256",
					"name": "pollID",
					"type": "uint256"
				},
				{
					"indexed": false,
					"internalType": "string",
					"name": "title",
					"type": "string"
				},
				{
					"indexed": false,
					"internalType": "address",
					"name": "owner",
					"type": "address"
				}
			],
			"name": "PollCreated",
			"type": "event"
		},
		{
			"anonymous": false,
			"inputs": [
				{
					"indexed": false,
					"internalType": "uint256",
					"name": "pollID",
					"type": "uint256"
				},
				{
					"indexed": false,
					"internalType": "uint256",
					"name": "optionIndex",
					"type": "uint256"
				},
				{
					"indexed": false,
					"internalType": "address",
					"name": "voter",
					"type": "address"
				}
			],
			"name": "Voted",
			"type": "event"
		},
		{
			"inputs": [
				{
					"internalType": "string",
					"name": "_title",
					"type": "string"
				},
				{
					"internalType": "string[]",
					"name": "_options",
					"type": "string[]"
				}
			],
			"name": "createPoll",
			"outputs": [],
			"stateMutability": "nonpayable",
			"type": "function"
		},
		{
			"inputs": [
				{
					"internalType": "uint256",
					"name": "_pollID",
					"type": "uint256"
				}
			],
			"name": "getPoll",
			"outputs": [
				{
					"internalType": "string",
					"name": "",
					"type": "string"
				},
				{
					"internalType": "string[]",
					"name": "",
					"type": "string[]"
				},
				{
					"internalType": "uint256[]",
					"name": "",
					"type": "uint256[]"
				},
				{
					"internalType": "address",
					"name": "",
					"type": "address"
				}
			],
			"stateMutability": "view",
			"type": "function"
		},
		{
			"inputs": [],
			"name": "getPollCount",
			"outputs": [
				{
					"internalType": "uint256",
					"name": "",
					"type": "uint256"
				}
			],
			"stateMutability": "view",
			"type": "function"
		},
		{
			"inputs": [],
			"name": "pollCount",
			"outputs": [
				{
					"internalType": "uint256",
					"name": "",
					"type": "uint256"
				}
			],
			"stateMutability": "view",
			"type": "function"
		},
		{
			"inputs": [
				{
					"internalType": "uint256",
					"name": "",
					"type": "uint256"
				}
			],
			"name": "polls",
			"outputs": [
				{
					"internalType": "string",
					"name": "title",
					"type": "string"
				},
				{
					"internalType": "address",
					"name": "owner",
					"type": "address"
				},
				{
					"internalType": "bool",
					"name": "exist",
					"type": "bool"
				}
			],
			"stateMutability": "view",
			"type": "function"
		},
		{
			"inputs": [
				{
					"internalType": "uint256",
					"name": "_pollID",
					"type": "uint256"
				},
				{
					"internalType": "uint256",
					"name": "_optionIndex",
					"type": "uint256"
				}
			],
			"name": "vote",
			"outputs": [],
			"stateMutability": "nonpayable",
			"type": "function"
		}
	]
}